:100000000C9434000C9448000C9446000C94460068
:100010000C9446000C9446000C9446000C94460048
:100020000C9446000C9446000C9446000C94460038
:100030000C9446000C9446000C9446000C94460028
:100040000C9446000C9446000C9446000C94460018
:100050000C9446000C9446000C9446000C94460008
:100060000C9446000C94460011241FBECFEFD8E03C
:10007000DEBFCDBF11E0A0E0B1E001C01D92A23013
:10008000B107E1F70E9489010C94F1020C94000081
:100090001F920F920FB60F9211248F939F934A9B3A
:1000A00003C01092B20007C08091B20090E090931C
:1000B0000101809300019F918F910F900FBE0F90CF
:1000C0001F9018958AB180668AB984B18E6384B90D
:1000D000539A089583EA84BD91E095BD89EA80939F
:1000E0008000909381000895E89AE9E6F0E080812D
:1000F00081608083E1EBF0E0808187608083789489
:10010000089588E18093C100E2ECF0E08081866090
:10011000808387E68093C400089581E480937C0007
:1001200083E880937A00089587BD68BD5093890065
:100130004093880030938B0020938A000895982F75
:100140008091C00085FFFCCF9093C6008091C000D5
:1001500086FFFCCF08955B9A80E58A95F1F75B985E
:100160008091000190910101892B41F08091000163
:10017000909101010F9710F481E301C080E30E9488
:100180009F008CED95E020E931E0F9013197F1F71E
:100190000197D9F7089580917A00806480937A005E
:1001A00080917A0086FDFCCF209178003091790013
:1001B000C9010895EF92FF920F931F93CF93DF939E
:1001C0009B01FA016AE070E00E94DD027B01C90137
:1001D0006AE070E00E94DD028B01CF016AE070E00E
:1001E0000E94DD02EB0185EFE81681E0F80648F099
:1001F00008551240F8F482E068357807D8F485E3B2
:1002000017C084EFE81681E0F806A1F082E0083517
:10021000180738F482E06935780718F086E30E9401
:100220009F000955124030F0C955D24018F087E3BD
:100230000E949F00DF91CF911F910F91FF90EF904F
:100240000895EF92FF920F931F93CF93DF93A0E057
:10025000B0E060E070E040E050E020E030E000E935
:1002600011E02B9A8CE291E0F8013197F1F70197B8
:10027000D9F780917A00806480937A0080917A0027
:1002800086FDFCCFE0907800F09079002B982C9AB6
:100290008CE291E0F8013197F1F70197D9F780915D
:1002A0007A00806480937A0080917A0086FDFCCF8A
:1002B000C0917800D09179002C982D9A8CE291E031
:1002C000F8013197F1F70197D9F780917A008064AE
:1002D00080937A0080917A0086FDFCCF809178002F
:1002E000909179002D98AE0DBF1D480F591F6C0FCE
:1002F0007D1F2F5F3F4F2A30310509F0B2CFCD016E
:100300000E94DA00DF91CF911F910F91FF90EF9043
:100310000895CF93DF930E94620083EA84BD91E049
:1003200095BD89EA809380009093810088E1809355
:10033000C1008091C20086608093C20087E68093EE
:10034000C4000E94740081E480937C0083E8809361
:100350007A008FEF87BD18BC86EE90E090938900FD
:100360008093880010928B0010928A00C0E0D0E049
:100370000E94AB000E9421012196C530D105C1F732
:1003800017BC8FEF88BD8FEF90E09093890080932A
:10039000880010928B0010928A008CE097E120E98F
:1003A00031E0F9013197F1F70197D9F78FEF87BD68
:1003B00018BC86EE90E0909389008093880010929C
:1003C0008B0010928A00C0E0D0E00E94AB000E9437
:1003D00021012196C430D105C1F78FEF87BD18BC2C
:1003E00010928900109288008FEF90E090938B001C
:1003F00080938A008EE397E120E931E0F90131979B
:10040000F1F70197D9F78FEF87BD18BC86EE90E022
:10041000909389008093880010928B0010928A003C
:10042000C0E0D0E00E94AB000E9421012196C430C0
:10043000D105C1F78FEF87BD18BC109289001092CB
:1004400088008FEF90E090938B0080938A008EE37A
:1004500097E120E931E0F9013197F1F70197D9F7F8
:100460008FEF87BD18BC86EE90E090938900809353
:10047000880010928B0010928A00C0E0D0E00E94A9
:10048000AB000E9421012196C930D105C1F78FEF41
:1004900087BD18BC10928900109288008FEF90E001
:1004A00090938B0080938A008EE397E120E931E0FE
:1004B000F9013197F1F70197D9F78FEF87BD18BC94
:1004C00086EE90E0909389008093880010928B00D4
:1004D00010928A00C0E0D0E00E94AB000E9421018F
:1004E0002196C430D105C1F78FEF87BD18BC10929B
:1004F0008900109288008FEF90E090938B0080939A
:100500008A008EE397E120E931E0F9013197F1F7B4
:100510000197D9F78FEF87BD18BC86EE90E09093D6
:1005200089008093880010928B0010928A00C0E0AE
:10053000D0E00E94AB000E9421012196C430D10579
:10054000C1F717BC8FEF88BD8FEF90E090938900C3
:100550008093880010928B0010928A008CE097E1C3
:1005600020E931E0F9013197F1F70197D9F78FEFE1
:1005700087BD18BC86EE90E0909389008093880038
:1005800010928B0010928A00C0E0D0E00E94AB0075
:100590000E9421012196C430D105C1F717BC18BCB7
:1005A000109289001092880010928B0010928A009D
:1005B00080E090E0DF91CF910895AA1BBB1B51E131
:1005C00007C0AA1FBB1FA617B70710F0A61BB70BC3
:1005D000881F991F5A95A9F780959095BC01CD0168
:0605E0000895F894FFCF1E
:00000001FF
